{
  "contractName": "SkillCertificate",
  "abi": [
    {
      "anonymous": false,
      "inputs": [
        {
          "indexed": false,
          "internalType": "uint256",
          "name": "id",
          "type": "uint256"
        },
        {
          "indexed": false,
          "internalType": "string",
          "name": "studentName",
          "type": "string"
        },
        {
          "indexed": false,
          "internalType": "string",
          "name": "skill",
          "type": "string"
        },
        {
          "indexed": false,
          "internalType": "string",
          "name": "issuedBy",
          "type": "string"
        },
        {
          "indexed": false,
          "internalType": "uint256",
          "name": "issuedOn",
          "type": "uint256"
        }
      ],
      "name": "CertificateIssued",
      "type": "event"
    },
    {
      "inputs": [],
      "name": "certCount",
      "outputs": [
        {
          "internalType": "uint256",
          "name": "",
          "type": "uint256"
        }
      ],
      "stateMutability": "view",
      "type": "function",
      "constant": true
    },
    {
      "inputs": [
        {
          "internalType": "uint256",
          "name": "",
          "type": "uint256"
        }
      ],
      "name": "certificates",
      "outputs": [
        {
          "internalType": "uint256",
          "name": "id",
          "type": "uint256"
        },
        {
          "internalType": "string",
          "name": "studentName",
          "type": "string"
        },
        {
          "internalType": "string",
          "name": "skill",
          "type": "string"
        },
        {
          "internalType": "string",
          "name": "issuedBy",
          "type": "string"
        },
        {
          "internalType": "uint256",
          "name": "issuedOn",
          "type": "uint256"
        }
      ],
      "stateMutability": "view",
      "type": "function",
      "constant": true
    },
    {
      "inputs": [
        {
          "internalType": "string",
          "name": "_studentName",
          "type": "string"
        },
        {
          "internalType": "string",
          "name": "_skill",
          "type": "string"
        },
        {
          "internalType": "string",
          "name": "_issuedBy",
          "type": "string"
        }
      ],
      "name": "issueCertificate",
      "outputs": [],
      "stateMutability": "nonpayable",
      "type": "function"
    },
    {
      "inputs": [
        {
          "internalType": "uint256",
          "name": "_id",
          "type": "uint256"
        }
      ],
      "name": "verifyCertificate",
      "outputs": [
        {
          "internalType": "uint256",
          "name": "",
          "type": "uint256"
        },
        {
          "internalType": "string",
          "name": "",
          "type": "string"
        },
        {
          "internalType": "string",
          "name": "",
          "type": "string"
        },
        {
          "internalType": "string",
          "name": "",
          "type": "string"
        },
        {
          "internalType": "uint256",
          "name": "",
          "type": "uint256"
        }
      ],
      "stateMutability": "view",
      "type": "function",
      "constant": true
    }
  ],
  "bytecode": "0x608060405234801561000f575f80fd5b506108d08061001d5f395ff3fe608060405234801561000f575f80fd5b506004361061004a575f3560e01c80631692a9421461004e578063663b3e221461007b578063beec1caa1461008e578063d4e207a2146100a3575b5f80fd5b61006161005c36600461056a565b6100ba565b6040516100729594939291906105c4565b60405180910390f35b61006161008936600461056a565b6102ca565b6100a161009c3660046106b2565b61048a565b005b6100ac60015481565b604051908152602001610072565b5f60608060605f805f808881526020019081526020015f206040518060a00160405290815f82015481526020016001820180546100f690610734565b80601f016020809104026020016040519081016040528092919081815260200182805461012290610734565b801561016d5780601f106101445761010080835404028352916020019161016d565b820191905f5260205f20905b81548152906001019060200180831161015057829003601f168201915b5050505050815260200160028201805461018690610734565b80601f01602080910402602001604051908101604052809291908181526020018280546101b290610734565b80156101fd5780601f106101d4576101008083540402835291602001916101fd565b820191905f5260205f20905b8154815290600101906020018083116101e057829003601f168201915b5050505050815260200160038201805461021690610734565b80601f016020809104026020016040519081016040528092919081815260200182805461024290610734565b801561028d5780601f106102645761010080835404028352916020019161028d565b820191905f5260205f20905b81548152906001019060200180831161027057829003601f168201915b50505091835250506004919091015460209182015281519082015160408301516060840151608090940151929b919a509850919650945092505050565b5f60208190529081526040902080546001820180549192916102eb90610734565b80601f016020809104026020016040519081016040528092919081815260200182805461031790610734565b80156103625780601f1061033957610100808354040283529160200191610362565b820191905f5260205f20905b81548152906001019060200180831161034557829003601f168201915b50505050509080600201805461037790610734565b80601f01602080910402602001604051908101604052809291908181526020018280546103a390610734565b80156103ee5780601f106103c5576101008083540402835291602001916103ee565b820191905f5260205f20905b8154815290600101906020018083116103d157829003601f168201915b50505050509080600301805461040390610734565b80601f016020809104026020016040519081016040528092919081815260200182805461042f90610734565b801561047a5780601f106104515761010080835404028352916020019161047a565b820191905f5260205f20905b81548152906001019060200180831161045d57829003601f168201915b5050505050908060040154905085565b60018054905f6104998361076c565b90915550506040805160a081018252600180548083526020808401888152848601889052606085018790524260808601525f92835290829052939020825181559251919291908201906104ec90826107de565b506040820151600282019061050190826107de565b506060820151600382019061051690826107de565b50608082015181600401559050507f4e57ac5b81fc1a44db509326df0216df15c605a2549a654260898384fe52f8ae6001548484844260405161055d9594939291906105c4565b60405180910390a1505050565b5f6020828403121561057a575f80fd5b5035919050565b5f81518084525f5b818110156105a557602081850181015186830182015201610589565b505f602082860101526020601f19601f83011685010191505092915050565b85815260a060208201525f6105dc60a0830187610581565b82810360408401526105ee8187610581565b905082810360608401526106028186610581565b9150508260808301529695505050505050565b634e487b7160e01b5f52604160045260245ffd5b5f82601f830112610638575f80fd5b813567ffffffffffffffff8082111561065357610653610615565b604051601f8301601f19908116603f0116810190828211818310171561067b5761067b610615565b81604052838152866020858801011115610693575f80fd5b836020870160208301375f602085830101528094505050505092915050565b5f805f606084860312156106c4575f80fd5b833567ffffffffffffffff808211156106db575f80fd5b6106e787838801610629565b945060208601359150808211156106fc575f80fd5b61070887838801610629565b9350604086013591508082111561071d575f80fd5b5061072a86828701610629565b9150509250925092565b600181811c9082168061074857607f821691505b60208210810361076657634e487b7160e01b5f52602260045260245ffd5b50919050565b5f6001820161078957634e487b7160e01b5f52601160045260245ffd5b5060010190565b601f8211156107d9575f81815260208120601f850160051c810160208610156107b65750805b601f850160051c820191505b818110156107d5578281556001016107c2565b5050505b505050565b815167ffffffffffffffff8111156107f8576107f8610615565b61080c816108068454610734565b84610790565b602080601f83116001811461083f575f84156108285750858301515b5f19600386901b1c1916600185901b1785556107d5565b5f85815260208120601f198616915b8281101561086d5788860151825594840194600190910190840161084e565b508582101561088a57878501515f19600388901b60f8161c191681555b5050505050600190811b0190555056fea26469706673582212208ed8b0bd59293d15366a0e10dad1a5e889b0ab4dd6c15f8de652c055ae5dbd3164736f6c63430008150033",
  "immutableReferences": {},
  "source": "// SPDX-License-Identifier: MIT\r\npragma solidity ^0.8.21;\r\n\r\ncontract SkillCertificate {\r\n    // Structure to hold certificate details\r\n    struct Certificate {\r\n        uint id;\r\n        string studentName;\r\n        string skill;\r\n        string issuedBy;\r\n        uint issuedOn;\r\n    }\r\n\r\n    // Mapping of certificate ID to Certificate\r\n    mapping(uint => Certificate) public certificates;\r\n\r\n    // Counter for certificate IDs\r\n    uint public certCount;\r\n\r\n    // Event emitted when a certificate is issued\r\n    event CertificateIssued(\r\n        uint id,\r\n        string studentName,\r\n        string skill,\r\n        string issuedBy,\r\n        uint issuedOn\r\n    );\r\n\r\n    // Function to issue a new certificate\r\n    function issueCertificate(\r\n        string memory _studentName,\r\n        string memory _skill,\r\n        string memory _issuedBy\r\n    ) public {\r\n        certCount++;\r\n        certificates[certCount] = Certificate(\r\n            certCount,\r\n            _studentName,\r\n            _skill,\r\n            _issuedBy,\r\n            block.timestamp\r\n        );\r\n\r\n        emit CertificateIssued(\r\n            certCount,\r\n            _studentName,\r\n            _skill,\r\n            _issuedBy,\r\n            block.timestamp\r\n        );\r\n    }\r\n\r\n    // Function to verify a certificate by ID\r\n    function verifyCertificate(uint _id) public view returns (\r\n        uint,\r\n        string memory,\r\n        string memory,\r\n        string memory,\r\n        uint\r\n    ) {\r\n        Certificate memory cert = certificates[_id];\r\n        return (\r\n            cert.id,\r\n            cert.studentName,\r\n            cert.skill,\r\n            cert.issuedBy,\r\n            cert.issuedOn\r\n        );\r\n    }\r\n}\r\n",
  "sourcePath": "C:\\Users\\RAVI KUMAR SAMPATH\\skill-certification\\contracts\\SkillCertificate.sol",
  "compiler": {
    "name": "solc",
    "version": "0.8.21+commit.d9974bed.Emscripten.clang"
  },
  "schemaVersion": "3.4.16",
  "updatedAt": "2026-02-12T12:03:06.011Z",
  "networkType": "ethereum",
  "devdoc": {
    "kind": "dev",
    "methods": {},
    "version": 1
  },
  "userdoc": {
    "kind": "user",
    "methods": {},
    "version": 1
  }
}